{
  "_format": "hh-sol-artifact-1",
  "contractName": "Voting",
  "sourceName": "contracts/Voting.sol",
  "abi": [
    {
      "inputs": [],
      "stateMutability": "nonpayable",
      "type": "constructor"
    },
    {
      "anonymous": false,
      "inputs": [
        {
          "indexed": false,
          "internalType": "uint256",
          "name": "id",
          "type": "uint256"
        },
        {
          "indexed": false,
          "internalType": "string",
          "name": "name",
          "type": "string"
        }
      ],
      "name": "CandidateAdded",
      "type": "event"
    },
    {
      "anonymous": false,
      "inputs": [
        {
          "indexed": false,
          "internalType": "enum Voting.Phase",
          "name": "newPhase",
          "type": "uint8"
        }
      ],
      "name": "PhaseChanged",
      "type": "event"
    },
    {
      "anonymous": false,
      "inputs": [
        {
          "indexed": false,
          "internalType": "address",
          "name": "voter",
          "type": "address"
        },
        {
          "indexed": false,
          "internalType": "uint256",
          "name": "candidateId",
          "type": "uint256"
        }
      ],
      "name": "VoteCast",
      "type": "event"
    },
    {
      "anonymous": false,
      "inputs": [
        {
          "indexed": false,
          "internalType": "address",
          "name": "voter",
          "type": "address"
        }
      ],
      "name": "VoterRegistered",
      "type": "event"
    },
    {
      "inputs": [
        {
          "internalType": "string",
          "name": "_name",
          "type": "string"
        }
      ],
      "name": "addCandidate",
      "outputs": [],
      "stateMutability": "nonpayable",
      "type": "function"
    },
    {
      "inputs": [],
      "name": "admin",
      "outputs": [
        {
          "internalType": "address",
          "name": "",
          "type": "address"
        }
      ],
      "stateMutability": "view",
      "type": "function"
    },
    {
      "inputs": [
        {
          "internalType": "uint256",
          "name": "",
          "type": "uint256"
        }
      ],
      "name": "candidates",
      "outputs": [
        {
          "internalType": "uint256",
          "name": "id",
          "type": "uint256"
        },
        {
          "internalType": "string",
          "name": "name",
          "type": "string"
        },
        {
          "internalType": "uint256",
          "name": "voteCount",
          "type": "uint256"
        }
      ],
      "stateMutability": "view",
      "type": "function"
    },
    {
      "inputs": [],
      "name": "candidatesCount",
      "outputs": [
        {
          "internalType": "uint256",
          "name": "",
          "type": "uint256"
        }
      ],
      "stateMutability": "view",
      "type": "function"
    },
    {
      "inputs": [],
      "name": "endVoting",
      "outputs": [],
      "stateMutability": "nonpayable",
      "type": "function"
    },
    {
      "inputs": [],
      "name": "getAllCandidates",
      "outputs": [
        {
          "components": [
            {
              "internalType": "uint256",
              "name": "id",
              "type": "uint256"
            },
            {
              "internalType": "string",
              "name": "name",
              "type": "string"
            },
            {
              "internalType": "uint256",
              "name": "voteCount",
              "type": "uint256"
            }
          ],
          "internalType": "struct Voting.Candidate[]",
          "name": "",
          "type": "tuple[]"
        }
      ],
      "stateMutability": "view",
      "type": "function"
    },
    {
      "inputs": [],
      "name": "phase",
      "outputs": [
        {
          "internalType": "enum Voting.Phase",
          "name": "",
          "type": "uint8"
        }
      ],
      "stateMutability": "view",
      "type": "function"
    },
    {
      "inputs": [
        {
          "internalType": "address",
          "name": "_voter",
          "type": "address"
        }
      ],
      "name": "registerVoter",
      "outputs": [],
      "stateMutability": "nonpayable",
      "type": "function"
    },
    {
      "inputs": [],
      "name": "startRegistration",
      "outputs": [],
      "stateMutability": "nonpayable",
      "type": "function"
    },
    {
      "inputs": [],
      "name": "startVoting",
      "outputs": [],
      "stateMutability": "nonpayable",
      "type": "function"
    },
    {
      "inputs": [
        {
          "internalType": "uint256",
          "name": "_candidateId",
          "type": "uint256"
        }
      ],
      "name": "vote",
      "outputs": [],
      "stateMutability": "nonpayable",
      "type": "function"
    },
    {
      "inputs": [
        {
          "internalType": "address",
          "name": "",
          "type": "address"
        }
      ],
      "name": "voters",
      "outputs": [
        {
          "internalType": "bool",
          "name": "isRegistered",
          "type": "bool"
        },
        {
          "internalType": "bool",
          "name": "hasVoted",
          "type": "bool"
        },
        {
          "internalType": "uint256",
          "name": "votedCandidateId",
          "type": "uint256"
        }
      ],
      "stateMutability": "view",
      "type": "function"
    },
    {
      "inputs": [],
      "name": "winningCandidate",
      "outputs": [
        {
          "internalType": "uint256",
          "name": "id",
          "type": "uint256"
        },
        {
          "internalType": "string",
          "name": "name",
          "type": "string"
        },
        {
          "internalType": "uint256",
          "name": "votes",
          "type": "uint256"
        }
      ],
      "stateMutability": "view",
      "type": "function"
    }
  ],
  "bytecode": "0x6080604052348015600f57600080fd5b50336000806101000a81548173ffffffffffffffffffffffffffffffffffffffff021916908373ffffffffffffffffffffffffffffffffffffffff16021790555060008060146101000a81548160ff021916908360038111156072576071607b565b5b021790555060aa565b7f4e487b7100000000000000000000000000000000000000000000000000000000600052602160045260246000fd5b611fc8806100b96000396000f3fe608060405234801561001057600080fd5b50600436106100cf5760003560e01c806338db6dd31161008c578063b1c9fe6e11610066578063b1c9fe6e146101dc578063c3403ddf146101fa578063d28178d714610204578063f851a44014610224576100cf565b806338db6dd314610172578063462e91ec1461018e578063a3ec138d146101aa576100cf565b80630121b93f146100d457806310b86695146100f05780631ec6b60a146100fa5780632d35a8a2146101045780632e6997fe146101225780633477ee2e14610140575b600080fd5b6100ee60048036038101906100e991906112d7565b610242565b005b6100f8610534565b005b6101026106ad565b005b61010c61086b565b6040516101199190611313565b60405180910390f35b61012a610871565b60405161013791906114df565b60405180910390f35b61015a600480360381019061015591906112d7565b6109e6565b6040516101699392919061154b565b60405180910390f35b61018c600480360381019061018791906115e7565b610a98565b005b6101a860048036038101906101a39190611679565b610cc3565b005b6101c460048036038101906101bf91906115e7565b610ec6565b6040516101d3939291906116e1565b60405180910390f35b6101e4610f0a565b6040516101f1919061178f565b60405180910390f35b610202610f1d565b005b61020c611096565b60405161021b9392919061154b565b60405180910390f35b61022c611252565b60405161023991906117b9565b60405180910390f35b600280600381111561025757610256611718565b5b600060149054906101000a900460ff16600381111561027957610278611718565b5b146102b9576040517f08c379a00000000000000000000000000000000000000000000000000000000081526004016102b090611846565b60405180910390fd5b600360003373ffffffffffffffffffffffffffffffffffffffff1673ffffffffffffffffffffffffffffffffffffffff16815260200190815260200160002060000160009054906101000a900460ff16610348576040517f08c379a000000000000000000000000000000000000000000000000000000000815260040161033f906118b2565b60405180910390fd5b600360003373ffffffffffffffffffffffffffffffffffffffff1673ffffffffffffffffffffffffffffffffffffffff16815260200190815260200160002060000160019054906101000a900460ff16156103d8576040517f08c379a00000000000000000000000000000000000000000000000000000000081526004016103cf9061191e565b60405180910390fd5b6000821180156103ea57506002548211155b610429576040517f08c379a00000000000000000000000000000000000000000000000000000000081526004016104209061198a565b60405180910390fd5b6001600360003373ffffffffffffffffffffffffffffffffffffffff1673ffffffffffffffffffffffffffffffffffffffff16815260200190815260200160002060000160016101000a81548160ff02191690831515021790555081600360003373ffffffffffffffffffffffffffffffffffffffff1673ffffffffffffffffffffffffffffffffffffffff168152602001908152602001600020600101819055506001600083815260200190815260200160002060020160008154809291906104f2906119d9565b91905055507fa36cc2bebb74db33e9f88110a07ef56e1b31b24b4c4f51b54b1664266e29f45b3383604051610528929190611a21565b60405180910390a15050565b60008054906101000a900473ffffffffffffffffffffffffffffffffffffffff1673ffffffffffffffffffffffffffffffffffffffff163373ffffffffffffffffffffffffffffffffffffffff16146105c2576040517f08c379a00000000000000000000000000000000000000000000000000000000081526004016105b990611abc565b60405180910390fd5b60008060038111156105d7576105d6611718565b5b600060149054906101000a900460ff1660038111156105f9576105f8611718565b5b14610639576040517f08c379a000000000000000000000000000000000000000000000000000000000815260040161063090611846565b60405180910390fd5b6001600060146101000a81548160ff0219169083600381111561065f5761065e611718565b5b02179055507fa6dcc92f45df25789d5639b7a0c97ba1edf3bb1c0b5dd3376fd96a0db87c4642600060149054906101000a900460ff166040516106a2919061178f565b60405180910390a150565b60008054906101000a900473ffffffffffffffffffffffffffffffffffffffff1673ffffffffffffffffffffffffffffffffffffffff163373ffffffffffffffffffffffffffffffffffffffff161461073b576040517f08c379a000000000000000000000000000000000000000000000000000000000815260040161073290611abc565b60405180910390fd5b60018060038111156107505761074f611718565b5b600060149054906101000a900460ff16600381111561077257610771611718565b5b146107b2576040517f08c379a00000000000000000000000000000000000000000000000000000000081526004016107a990611846565b60405180910390fd5b6000600254116107f7576040517f08c379a00000000000000000000000000000000000000000000000000000000081526004016107ee90611b28565b60405180910390fd5b6002600060146101000a81548160ff0219169083600381111561081d5761081c611718565b5b02179055507fa6dcc92f45df25789d5639b7a0c97ba1edf3bb1c0b5dd3376fd96a0db87c4642600060149054906101000a900460ff16604051610860919061178f565b60405180910390a150565b60025481565b6060600060025467ffffffffffffffff81111561089157610890611b48565b5b6040519080825280602002602001820160405280156108ca57816020015b6108b7611276565b8152602001906001900390816108af5790505b5090506000600190505b60025481116109de57600160008281526020019081526020016000206040518060600160405290816000820154815260200160018201805461091590611ba6565b80601f016020809104026020016040519081016040528092919081815260200182805461094190611ba6565b801561098e5780601f106109635761010080835404028352916020019161098e565b820191906000526020600020905b81548152906001019060200180831161097157829003601f168201915b50505050508152602001600282015481525050826001836109af9190611bd7565b815181106109c0576109bf611c0b565b5b602002602001018190525080806109d6906119d9565b9150506108d4565b508091505090565b6001602052806000526040600020600091509050806000015490806001018054610a0f90611ba6565b80601f0160208091040260200160405190810160405280929190818152602001828054610a3b90611ba6565b8015610a885780601f10610a5d57610100808354040283529160200191610a88565b820191906000526020600020905b815481529060010190602001808311610a6b57829003601f168201915b5050505050908060020154905083565b60008054906101000a900473ffffffffffffffffffffffffffffffffffffffff1673ffffffffffffffffffffffffffffffffffffffff163373ffffffffffffffffffffffffffffffffffffffff1614610b26576040517f08c379a0000000000000000000000000000000000000000000000000000000008152600401610b1d90611abc565b60405180910390fd5b6001806003811115610b3b57610b3a611718565b5b600060149054906101000a900460ff166003811115610b5d57610b5c611718565b5b14610b9d576040517f08c379a0000000000000000000000000000000000000000000000000000000008152600401610b9490611846565b60405180910390fd5b600360008373ffffffffffffffffffffffffffffffffffffffff1673ffffffffffffffffffffffffffffffffffffffff16815260200190815260200160002060000160009054906101000a900460ff1615610c2d576040517f08c379a0000000000000000000000000000000000000000000000000000000008152600401610c2490611c86565b60405180910390fd5b6001600360008473ffffffffffffffffffffffffffffffffffffffff1673ffffffffffffffffffffffffffffffffffffffff16815260200190815260200160002060000160006101000a81548160ff0219169083151502179055507fb6be2187d059cc2a55fe29e0e503b566e1e0f8c8780096e185429350acffd3dd82604051610cb791906117b9565b60405180910390a15050565b60008054906101000a900473ffffffffffffffffffffffffffffffffffffffff1673ffffffffffffffffffffffffffffffffffffffff163373ffffffffffffffffffffffffffffffffffffffff1614610d51576040517f08c379a0000000000000000000000000000000000000000000000000000000008152600401610d4890611abc565b60405180910390fd5b6001806003811115610d6657610d65611718565b5b600060149054906101000a900460ff166003811115610d8857610d87611718565b5b14610dc8576040517f08c379a0000000000000000000000000000000000000000000000000000000008152600401610dbf90611846565b60405180910390fd5b60026000815480929190610ddb906119d9565b91905055506040518060600160405280600254815260200184848080601f016020809104026020016040519081016040528093929190818152602001838380828437600081840152601f19601f8201169050808301925050505050505081526020016000815250600160006002548152602001908152602001600020600082015181600001556020820151816001019081610e769190611e52565b50604082015181600201559050507fe83b2a43e7e82d975c8a0a6d2f045153c869e111136a34d1889ab7b598e396a36002548484604051610eb993929190611f60565b60405180910390a1505050565b60036020528060005260406000206000915090508060000160009054906101000a900460ff16908060000160019054906101000a900460ff16908060010154905083565b600060149054906101000a900460ff1681565b60008054906101000a900473ffffffffffffffffffffffffffffffffffffffff1673ffffffffffffffffffffffffffffffffffffffff163373ffffffffffffffffffffffffffffffffffffffff1614610fab576040517f08c379a0000000000000000000000000000000000000000000000000000000008152600401610fa290611abc565b60405180910390fd5b6002806003811115610fc057610fbf611718565b5b600060149054906101000a900460ff166003811115610fe257610fe1611718565b5b14611022576040517f08c379a000000000000000000000000000000000000000000000000000000000815260040161101990611846565b60405180910390fd5b6003600060146101000a81548160ff0219169083600381111561104857611047611718565b5b02179055507fa6dcc92f45df25789d5639b7a0c97ba1edf3bb1c0b5dd3376fd96a0db87c4642600060149054906101000a900460ff1660405161108b919061178f565b60405180910390a150565b60006060600060038060038111156110b1576110b0611718565b5b600060149054906101000a900460ff1660038111156110d3576110d2611718565b5b14611113576040517f08c379a000000000000000000000000000000000000000000000000000000000815260040161110a90611846565b60405180910390fd5b6000806000600190505b600254811161117457826001600083815260200190815260200160002060020154111561116157600160008281526020019081526020016000206002015492508091505b808061116c906119d9565b91505061111d565b50600081111561122f578060016000838152602001908152602001600020600101838180546111a290611ba6565b80601f01602080910402602001604051908101604052809291908181526020018280546111ce90611ba6565b801561121b5780601f106111f05761010080835404028352916020019161121b565b820191906000526020600020905b8154815290600101906020018083116111fe57829003601f168201915b50505050509150955095509550505061124c565b600080604051806020016040528060008152509095509550955050505b50909192565b60008054906101000a900473ffffffffffffffffffffffffffffffffffffffff1681565b60405180606001604052806000815260200160608152602001600081525090565b600080fd5b600080fd5b6000819050919050565b6112b4816112a1565b81146112bf57600080fd5b50565b6000813590506112d1816112ab565b92915050565b6000602082840312156112ed576112ec611297565b5b60006112fb848285016112c2565b91505092915050565b61130d816112a1565b82525050565b60006020820190506113286000830184611304565b92915050565b600081519050919050565b600082825260208201905092915050565b6000819050602082019050919050565b611363816112a1565b82525050565b600081519050919050565b600082825260208201905092915050565b60005b838110156113a3578082015181840152602081019050611388565b60008484015250505050565b6000601f19601f8301169050919050565b60006113cb82611369565b6113d58185611374565b93506113e5818560208601611385565b6113ee816113af565b840191505092915050565b6000606083016000830151611411600086018261135a565b506020830151848203602086015261142982826113c0565b915050604083015161143e604086018261135a565b508091505092915050565b600061145583836113f9565b905092915050565b6000602082019050919050565b60006114758261132e565b61147f8185611339565b9350836020820285016114918561134a565b8060005b858110156114cd57848403895281516114ae8582611449565b94506114b98361145d565b925060208a01995050600181019050611495565b50829750879550505050505092915050565b600060208201905081810360008301526114f9818461146a565b905092915050565b600082825260208201905092915050565b600061151d82611369565b6115278185611501565b9350611537818560208601611385565b611540816113af565b840191505092915050565b60006060820190506115606000830186611304565b81810360208301526115728185611512565b90506115816040830184611304565b949350505050565b600073ffffffffffffffffffffffffffffffffffffffff82169050919050565b60006115b482611589565b9050919050565b6115c4816115a9565b81146115cf57600080fd5b50565b6000813590506115e1816115bb565b92915050565b6000602082840312156115fd576115fc611297565b5b600061160b848285016115d2565b91505092915050565b600080fd5b600080fd5b600080fd5b60008083601f84011261163957611638611614565b5b8235905067ffffffffffffffff81111561165657611655611619565b5b6020830191508360018202830111156116725761167161161e565b5b9250929050565b600080602083850312156116905761168f611297565b5b600083013567ffffffffffffffff8111156116ae576116ad61129c565b5b6116ba85828601611623565b92509250509250929050565b60008115159050919050565b6116db816116c6565b82525050565b60006060820190506116f660008301866116d2565b61170360208301856116d2565b6117106040830184611304565b949350505050565b7f4e487b7100000000000000000000000000000000000000000000000000000000600052602160045260246000fd5b6004811061175857611757611718565b5b50565b600081905061176982611747565b919050565b60006117798261175b565b9050919050565b6117898161176e565b82525050565b60006020820190506117a46000830184611780565b92915050565b6117b3816115a9565b82525050565b60006020820190506117ce60008301846117aa565b92915050565b7f46756e6374696f6e2063616e6e6f742062652063616c6c656420696e2074686960008201527f7320706861736500000000000000000000000000000000000000000000000000602082015250565b6000611830602783611501565b915061183b826117d4565b604082019050919050565b6000602082019050818103600083015261185f81611823565b9050919050565b7f596f7520617265206e6f74207265676973746572656400000000000000000000600082015250565b600061189c601683611501565b91506118a782611866565b602082019050919050565b600060208201905081810360008301526118cb8161188f565b9050919050565b7f596f7520616c726561647920766f746564000000000000000000000000000000600082015250565b6000611908601183611501565b9150611913826118d2565b602082019050919050565b60006020820190508181036000830152611937816118fb565b9050919050565b7f496e76616c69642063616e646964617465000000000000000000000000000000600082015250565b6000611974601183611501565b915061197f8261193e565b602082019050919050565b600060208201905081810360008301526119a381611967565b9050919050565b7f4e487b7100000000000000000000000000000000000000000000000000000000600052601160045260246000fd5b60006119e4826112a1565b91507fffffffffffffffffffffffffffffffffffffffffffffffffffffffffffffffff8203611a1657611a156119aa565b5b600182019050919050565b6000604082019050611a3660008301856117aa565b611a436020830184611304565b9392505050565b7f4f6e6c792061646d696e2063616e20706572666f726d2074686973206163746960008201527f6f6e000000000000000000000000000000000000000000000000000000000000602082015250565b6000611aa6602283611501565b9150611ab182611a4a565b604082019050919050565b60006020820190508181036000830152611ad581611a99565b9050919050565b7f4e6f2063616e6469646174657320726567697374657265640000000000000000600082015250565b6000611b12601883611501565b9150611b1d82611adc565b602082019050919050565b60006020820190508181036000830152611b4181611b05565b9050919050565b7f4e487b7100000000000000000000000000000000000000000000000000000000600052604160045260246000fd5b7f4e487b7100000000000000000000000000000000000000000000000000000000600052602260045260246000fd5b60006002820490506001821680611bbe57607f821691505b602082108103611bd157611bd0611b77565b5b50919050565b6000611be2826112a1565b9150611bed836112a1565b9250828203905081811115611c0557611c046119aa565b5b92915050565b7f4e487b7100000000000000000000000000000000000000000000000000000000600052603260045260246000fd5b7f416c726561647920726567697374657265640000000000000000000000000000600082015250565b6000611c70601283611501565b9150611c7b82611c3a565b602082019050919050565b60006020820190508181036000830152611c9f81611c63565b9050919050565b60008190508160005260206000209050919050565b60006020601f8301049050919050565b600082821b905092915050565b600060088302611d087fffffffffffffffffffffffffffffffffffffffffffffffffffffffffffffffff82611ccb565b611d128683611ccb565b95508019841693508086168417925050509392505050565b6000819050919050565b6000611d4f611d4a611d45846112a1565b611d2a565b6112a1565b9050919050565b6000819050919050565b611d6983611d34565b611d7d611d7582611d56565b848454611cd8565b825550505050565b600090565b611d92611d85565b611d9d818484611d60565b505050565b5b81811015611dc157611db6600082611d8a565b600181019050611da3565b5050565b601f821115611e0657611dd781611ca6565b611de084611cbb565b81016020851015611def578190505b611e03611dfb85611cbb565b830182611da2565b50505b505050565b600082821c905092915050565b6000611e2960001984600802611e0b565b1980831691505092915050565b6000611e428383611e18565b9150826002028217905092915050565b611e5b82611369565b67ffffffffffffffff811115611e7457611e73611b48565b5b611e7e8254611ba6565b611e89828285611dc5565b600060209050601f831160018114611ebc5760008415611eaa578287015190505b611eb48582611e36565b865550611f1c565b601f198416611eca86611ca6565b60005b82811015611ef257848901518255600182019150602085019450602081019050611ecd565b86831015611f0f5784890151611f0b601f891682611e18565b8355505b6001600288020188555050505b505050505050565b82818337600083830152505050565b6000611f3f8385611501565b9350611f4c838584611f24565b611f55836113af565b840190509392505050565b6000604082019050611f756000830186611304565b8181036020830152611f88818486611f33565b905094935050505056fea2646970667358221220703b46f22396ddecb65f2fc82f28eba34d7cc6499a009d30a2507091de6e1d0464736f6c634300081c0033",
  "linkReferences": {},
  "deployedLinkReferences": {}
}